:020000040800F2
:10000000C00A002041310008972F0008992F0008EE
:100010009B2F00089D2F00089F2F00080000000064
:10002000000000000000000000000000A12F0008F8
:10003000A32F000800000000A52F0008A72F00082C
:1000400075310008793100087D31000881310008E0
:1000500085310008893100088D3100089131000890
:1000600095310008993100089D310008A131000840
:10007000A5310008A9310008AD310008B1310008F0
:10008000B5310008B9310008BD310008C1310008A0
:10009000C5310008C9310008CD310008AB2F000878
:1000A000D1310008D5310008D9310008DD31000810
:1000B000E1310008E5310008E9310008ED310008C0
:1000C000F1310008F5310008F9310008FD31000870
:1000D0000132000805320008093200080D3200081C
:1000E000CB2F000811320008153200081932000821
:1000F0001D3200082132000825320008293200088C
:100100002D3200083132000835320008393200083B
:100110003D320008413200084532000849320008EB
:100120004D3200085132000855320008593200089B
:100130005D3200086132000865320008693200084B
:100140006D320008713200087532000879320008FB
:100150007D320008813200088532000889320008AB
:100160008D3200089132000895320008993200085B
:100170009D320008A13200080000000000000000CD
:10018000A5320008A93200082DE9FC47050065D01A
:10019000DFF8A076DFF8AC66BC68F86800F003080A
:1001A0002878C10604F00C0448D524B10C2C08BFF3
:1001B000B8F1010F2CD13868810702D5A869002851
:1001C0004CD0396808074EBF396871680909286A38
:1001D00001F0F001814206D200F0F2FA00283DD190
:1001E00000F0F5F907E000F0F2F924B9286A00F010
:1001F000E7FA002832D100F086FABA6800F079FAFE
:10020000DFF83806006800F035FB010016D0D8E1B1
:10021000A86928B3396841F00101396000F04CFB4E
:1002200081463868810707D400F046FBA0EB09003F
:100230000328F6D30320C4E100F0C9F92878C107E8
:1002400056D5082C04D00C2C08BFB8F1030F18D1D8
:10025000386881034CD56868002849D10120B0E195
:10026000386840084000386000F026FB8146386856
:100270008107E3D500F020FBA0EB09000328F6D3AB
:10028000D8E76868B0F5803F04D1386840F4803022
:10029000386011E0B0F5A02F386806D140F4802016
:1002A0003860396841F4803105E020F480303860EE
:1002B000396821F480213960686860B100F0FCFA87
:1002C00081463868810313D400F0F6FAA0EB0900E8
:1002D0006528F6D3AEE700F0EFFA8146386881036F
:1002E00006D500F0E9FAA0EB09006528F6D3A1E7EE
:1002F0002878810713D5042C04D00C2C08BFB8F142
:10030000020F22D13868410502D5E8680028A5D03F
:100310007868296920F0F85040EA01607860287810
:10032000010743D568690028706830D040F00100AB
:10033000706000F0C1FA80467068810736D400F022
:10034000BBFA00F040F9F7D374E7E86878B1396890
:1003500041F48071396000F0AFFA80463868410599
:10036000D6D400F0A9FA00F02EF9F7D362E7386886
:1003700020F48070386000F09FFA804638684105AC
:10038000CDD500F099FA00F01EF9F7D352E74008F6
:100390004000706000F090FA80467068810705D5D3
:1003A00000F08AFA00F00FF9F7D343E72878410705
:1003B00067D5B86DC1004FF000080AD4B86D40F0A1
:1003C0008050B8654FF00108B86D00F08050009083
:1003D0000098DFF87494D9F80000C10513D4D9F857
:1003E000000040F48070C9F8000000F065FA824611
:1003F000D9F80000C10506D400F05EFAA0EB0A00AF
:100400000328F5D316E7A868012804D1306840F026
:100410000100306010E00528306806D140F004008B
:100420003060316841F0010105E040084000306073
:10043000316821F004013160A86841F2893960B166
:1004400000F03AFA82463068810713D400F034FA9B
:10045000A0EB0A004845F6D3ECE600F02DFA824600
:100460003068810706D500F027FAA0EB0A0048455E
:10047000F6D3DFE6B8F1000F03D0B86D20F080505E
:10048000B865A86A002800F09B80022878D1F86837
:10049000EA6A00F00301914201BF00F070012A6B8B
:1004A000521EB1EB021F1ED16A6B00F4FE41B1EB8C
:1004B000022F18D1A96B07290CBF0021012100F4DC
:1004C00000328A420FD1EA6B520800F4C001521E7A
:1004D000B1EB425F07D1296C490800F0C060491EAA
:1004E000B0EB416F48D00C2C4BD03868410101D49F
:1004F0003868C1003FF5B2AE386820F080703860CF
:1005000000F0DAF904463868810105D500F0D4F925
:10051000001B0328F7D38DE6F868DFF83013EA6A8A
:100520000840296B1043491E40EA0110EA6B696BD1
:10053000520840EA0120296C521E490840EA425004
:10054000491E40EA4160A96B090940EA4140F86050
:10055000386840F080703860F96841F08071F96067
:1005600000F0AAF904463868810129D400F0A4F902
:10057000001B0328F7D35DE63868810120D4E7E744
:100580000C2C3FF46BAE386820F08070386039680E
:1005900011F0205F03D1F86880088000F860F968E6
:1005A000DFF8AC020140F96000F086F904463868D3
:1005B000810105D500F080F9001B0328F7D339E647
:1005C0000020BDE8F687A0EB0800032870473868D4
:1005D00040F0080038603968286A21F0F0010143D2
:1005E00039607968E86921F47F4141EA0021796046
:1005F00070472DE9F0410400884658D0DFF8546276
:10060000306800F00700404509D23168C90848EA5F
:10061000C1013160306800F00700404547D12078C3
:10062000DFF81052C1072AD56068032802D1296873
:100630008A0108E0022802D129688A0303E0002821
:10064000296802D18A0702D431E04A052FD5A9686A
:10065000890840EA8100A86000F02EF90746A868E2
:10066000616800F00C00B0EB810F08D000F024F9B5
:10067000C01B41F289318842F1D3032037E0207852
:10068000810705D5AA68A06822F0F0020243AA609B
:10069000316801F0070188450BD23068C00848EA8C
:1006A000C0003060316801F00701414501D00120F0
:1006B0001DE02078410705D5AA68E06822F4E062D1
:1006C0000243AA602178080706D5A968206921F4A9
:1006D000605141EAC001A96000F015F8AA6800F075
:1006E00008F8BDE8F0415548006800F0C3B8BDE81F
:1006F000F0815949C2F30312895C4F4A01F01F018E
:10070000C8401060704770B54A4A554B9068D6682B
:100710000025002110F00C0006F00306514C03D018
:100720000C2812D1012E1AD115682E0704D4444D7D
:100730002E68C6F3032502E01568C5F303154A4E7B
:1007400056F8255048B9294624E0042808BF214618
:1007500020D008281ED119461CE00C281AD1D068D8
:1007600000F00300022803D0032808BF1D4600E064
:100770002546D168D068D268C0F306204543C1F34E
:100780000210C2F34161401C491CB5FBF0F0490066
:10079000B0FBF1F1084670BD2748304A0068136885
:1007A0003249C3F3022206E023482C4A006813684A
:1007B0002E49C3F3C222895C01F01F01C840704773
:1007C0007CB52B4E054630680024C10002D500F0F0
:1007D00079F80EE0306840F080503060316801F008
:1007E00080510091009800F06DF8316821F080513F
:1007F0003160B0F5007F04D1802D0CD9A12D09D333
:1008000004E0802D88BF032405D801D1022402E032
:10081000702D00D101240F480168C90844EAC101C4
:100820000160006800F00700A04201D0012076BD01
:10083000002076BD001002400C00002008000020BF
:100840009410024090100240007000408C809DF98E
:10085000FFFFEEFE00200240483000080810024072
:1008600000127A000024F400583000086C310008AF
:100870005810024070B50E4E044630780025A0B1E5
:100880004FF47A710B4AB1FBF0F11068B0FBF1F054
:1008900000F0A7F848B9102C07D2002221464FF0EB
:1008A000FF3000F075F8B46000E00125284670BD07
:1008B000000000200C00002001484068704700BF85
:1008C00000000020DFF88400006800F4C06070477A
:1008D00010B5DFF87810B0F5007F086800F4C0604C
:1008E00019D1B0F5007F1FD00868DFF86420DFF869
:1008F000644020F4C06040F4007000F01FF800E095
:10090000401E4A69530501D50028F9D148694105BF
:100910000AD5032010BDB0F5806F05D0086820F41B
:10092000C06040F480600860002010BDDFF828003F
:10093000FFE7016841F48061016070470860322080
:1009400013684343B3FBF4F0401C70470070004051
:100950000C00002040420F0004700040090102001A
:1009600002D42A4881547047294B02F00F021A44DE
:1009700002F8041C7047274B19684FF6FF0200026B
:10098000114000F4E06008432349084318607047B1
:1009900070B5204B1C68C4F302230124C3F1070582
:1009A000052D2EBF0F2504FA05F56D1E1E1D072E01
:1009B00034BF0023DB1E2940994004FA03F3BDE84D
:1009C00070405B1E1A401143C8E70000010007D4C5
:1009D000012200F01F01114B8A40400943F82020FA
:1009E000704710B5401EB0F1807F01D3012010BDCB
:1009F0000B4C60600F214FF0FF30FFF7AFFF00217D
:100A0000A16007202060002010BD000000E400E08D
:100A100018ED00E00CED00E00000FA0500E100E058
:100A200010E000E002206870211D206800F049F904
:100A300001202873A870E87028716871A871E871A6
:100A400028726872A872E8726870002032BD38B5EA
:100A5000040001D1012032BD00F0A8F818B900F05F
:100A6000A1F800F0BDFBDDE770B500F091F809B921
:100A700002780FE0042908BF42780BD0082908BF8C
:100A8000827807D00C2908BFC27803D010290CBF88
:100A900002794279012A01D0012070BD11B90222E8
:100AA000027014E0042902D1022242700FE00829EA
:100AB00002D1022282700AE00C2902D10222C27005
:100AC00005E0102907BF022202710223437100F0E2
:100AD00044F800F04BF818BF904208D088421FBF7E
:100AE000DFF8B850A842DFF8B860B04201D100F09A
:100AF0001FF824689C4218BFB4F1804F0BD000F05F
:100B000024F81CBF1E4B9C4205D000F01BF81CBFF4
:100B100094428C4208D100F010F818BFB1F5803F24
:100B200004D000F01EF801E000F012F8002070BDC3
:100B3000456C45F4004545647047A168164801407E
:100B4000062970470F48844270470C48844270471A
:100B5000216841F00101216070472068012200F006
:100B60004FBA206840F00100206070472068024BB7
:100B7000054A064998427047002C01400004004095
:100B800000080040000C00400034014000400140DB
:100B9000044604F13E007047070001000044014094
:100BA00000480140002129702046704704F13C05AF
:100BB0006878704738B500F07EF801D1022032BD68
:100BC000012084F83C0052B1042A19D0082A29D007
:100BD0000C2A38D0102A48D0142A57D067E0206851
:100BE00000F0C5F82168886940F0080088618869CC
:100BF00020F0040088618A69286902438A6156E00E
:100C0000206800F0F5F82068816941F40061816195
:100C1000816921F48061816181692A6941EA022147
:100C2000816144E0206800F01CF92168C86940F047
:100C30000800C861C86920F00400C861CA69286951
:100C40000243CA6133E0206800F043F92068C169BB
:100C500041F40061C161C16921F48061C161C16970
:100C60002A6941EA0221C16121E0206800F058F9B7
:100C70002168486D40F008004865486D20F0040088
:100C800048654A6D286902434A6510E0206800F013
:100C900071F92068416D41F400614165416D21F4B5
:100CA00080614165416D2A6941EA02214165002068
:100CB00084F83C0032BD04460D4694F83C000128FF
:100CC00070472DE9F043DFF80873D0F800C0DFF873
:100CD0000433DFF80443DFF80453DFF80463DFF87C
:100CE00004E3DFF80483DFF80493B84218BFB0F1DF
:100CF000804F07D0484518BF404503D0704518BF06
:100D0000B0420ED14A68B8422CF0700C18BFB0F156
:100D1000804F42EA0C0C0CD048451CBF4045704542
:100D200007D0B04218BFA84203D0A04218BF9842D3
:100D300004D1CA682CF4407C42EA0C0C4A692CF0BD
:100D4000800C42EA0C020260B8428A68C26218BF94
:100D5000B0420A68826204D0A8421CBFA0429842F6
:100D600001D10969016301224261BDE8F0832DE9E7
:100D7000F041026ADFF85882DFF864E2DFF8587267
:100D8000DFF858C2520852000262066A4468856958
:100D9000DFF85C220B6826F0020615408A681643CD
:100DA0001D43404518BF70458A4B04D060451CBFA9
:100DB000B84298420DD1CA6826F00806164340454D
:100DC00018BF704526F0040605D0604518BFB8422C
:100DD00001D0984205D14B698A6924F440741C43C0
:100DE000144344608561496841630662BDE8F0814F
:100DF000F0B5026A22F010020262056A4368846953
:100E00007C4A0E6814408A6844EA062425F02005CE
:100E100045EA02156E4E724AB04218BF904208D1A0
:100E2000CF6825F0800545EA0715B04225F040055A
:100E30000AD090421CBF694A904205D0664EB0422B
:100E40001CBF644A904206D14E698A6923F440630C
:100E5000164343EA860343608461496881630562FF
:100E6000F0BDF0B5026A624B22F480720262066A3B
:100E70004468C5690A6826F400761D408B6846EA16
:100E800003261543524B564A984218BF904208D148
:100E9000CF6826F4006646EA0726984226F4806664
:100EA0000AD090421CBF4D4A904205D04A4B98420E
:100EB0001CBF484A904206D14B698A6924F44054C9
:100EC000134344EA03144460C5614968C163066280
:100ED000F0BD70B5026A22F480520262036A44686F
:100EE000C569444A00F06DF823F4005343EA023325
:100EF000B0421CBF3A4A904207D0384EB0421FBFA2
:100F0000354A9042334EB04204D14A6924F48044B9
:100F100044EA82144460C56149680164036270BD9B
:100F200070B5026A344B22F480320262046A45686A
:100F3000466D0A681E4016438B68254A24F4003427
:100F400044EA034490421CBF254B984207D0234AF1
:100F500090421FBF204B98421E4A904204D14A69DA
:100F600025F4803545EA0225456046654968816576
:100F7000046270BD70B5026A22F480120262036AD4
:100F80004468456D1D4A00F01CF823F4001343EA41
:100F90000253B0421CBF124A904207D00F4EB042DB
:100FA0001FBF0D4A90420B4EB04204D14A6924F44F
:100FB000802444EA8224446045654968C16503622F
:100FC00070BD0E68154045EA06258A68004E7047D8
:100FD000002C014000480140004401400040014015
:100FE00000340140000C00400008004000040040B4
:100FF0008CFFFEFFFF8CFFFE8FFFFEFFFF8FFFFECB
:1010000010B501F01F01036A01248C40A343036261
:1010100002FA01F1036A1943016210BDDFF8D0033F
:1010200081B0816841F001018160816801F00101B6
:1010300000910099026842F080520260006800F05E
:1010400080500090009801B0704710B5A8B000F033
:10105000C2F800F064F9DFF89C43206808BB4FF445
:10106000803100220691269200F056F908B100F076
:101070006EFCDFF88403416941F080714161416990
:1010800001F0807100F064F84FF4207100F06CF80A
:1010900004910621059101A900F078FC2068401C0C
:1010A000206028B010BD10B5A8B000F093F800F093
:1010B00036F92068DFF84413884229D180220021C4
:1010C00006921B9100F028F908B100F040FCDFF80F
:1010D0002843206840F0020020601222216801F0BD
:1010E000020100914FF440610098DFF81403019170
:1010F0000292012103910322042100F030F8E068FC
:1011000040F48000E060E06800F480000090009807
:1011100028B010BD10B586B000F05CF82168DFF88B
:10112000E402814212D1DFF8D002416841F48071BB
:101130004160416801F4807100F00AF84FF47C418D
:1011400000F012F803220A2100F009F806B010BDE1
:1011500000910099026842F0100202607047059108
:10116000049201A900F012BC006800F01000009089
:1011700002220098DFF8900201910292002103916F
:10118000704710B586B000F025F821689F4881426D
:101190001ED19948C16841F40041C160C16801F4A1
:1011A000004100910099026842F0040202604FF48D
:1011B000E051006800F0040000900222009894487A
:1011C000019102920021039103220621FFF7C7FF3C
:1011D00006B010BD04461422002101A800F0D7BCBF
:1011E00010B586B0FFF7F6FF2168B1F1804F10D13E
:1011F0008148C16841F00101C160C16801F001018D
:1012000000910099026842F001020260082100F09A
:1012100014F806B010BD10B586B0FFF7DBFF2168EB
:10122000B1F1804F07D17448016841F001010160BC
:10123000202100F002F806B010BD006800F00100A7
:1012400000900222009801910292002103910491E2
:101250004FF090400121059101A900F097BB10B516
:10126000A8B0044614220021684600F090FC00F06B
:1012700056F820686749604C88421ED1012200213F
:101280000692149100F048F808B100F060FB606924
:1012900040F480406061606900F4804005900598EA
:1012A000216841F002012160C021226802F002029F
:1012B000059202220598524821E05749884229D1D7
:1012C000042200210692169100F026F808B100F0E1
:1012D0003EFBE06840F48020E060E06800F480209D
:1012E00005900598216841F0080121604FF4407194
:1012F000226802F0080205920222059847480091F0
:101300000192002102910322072104910392694670
:1013100000F03CFB28B010BD06A800F059BC8822A4
:10132000002106A800F033BC10B5A8B0FFF752FFAB
:10133000FFF7F5FF2068B0F1A04F51D14FF40051F5
:1013400006914FF0806201210791089121921821A6
:101350000991072202210B910C910A924FF48011FE
:101360000D91FFF7D9FF08B100F0F1FA224C206887
:1013700040F0010020600022216801F0010100918D
:101380004FF40071009801910292039200F02AF844
:1013900002210291002203924FF4E05003210190B8
:1013A00004910A22059200F01DF8206840F4805054
:1013B0002060216801F4805100910098E168C80024
:1013C0000CD4E16841F08051E16000F029F8FFF7AA
:1013D000ADFAE06820F08050E06001E0FFF7A6FA87
:1013E00028B010BD01A94FF0904000F0CFBA000026
:1013F00058100240BC0600204C100240005800402B
:1014000000040048001000A000100048003C00400C
:10141000000800480038014000480040000C004827
:10142000E06800F0805000900098704718B587B0D1
:101430006022009201900022029204926946DFF835
:10144000BC442046FFF7B6FB00212046FFF70CFB0B
:1014500008B010BD2DE9F84F8AB000F061FE00F031
:1014600008FA00F06FFADFF89804DFF89864016872
:10147000DFF89454DFF89494DFF894A4DFF894B480
:1014800041F01001016048F20417026802F01002F6
:10149000059200240599026842F004020260A04609
:1014A000036803F0040305930599026842F0010202
:1014B0000260036803F0010305930599026842F096
:1014C00002020260036803F00203059305990268B3
:1014D00042F0080202600022006800F00800059057
:1014E0004FF48A710598304600F02EFB00223946F1
:1014F0004FF0904000F028FB00224FF214012846E4
:1015000000F022FB002241F28101484600F01CFB62
:1015100001224FF40051484600F016FB00224FF420
:101520001071504600F010FB01222021284600F0E7
:101530000BFB01220121304600F006FB40F21511A1
:1015400000F078F96946304600F020FA6A200090F1
:10155000CDF804B002946946304600F017FA4FF413
:101560000050DFF8B41300F076F93F200B2100F0B3
:1015700072F903200221009001910390082200F0EB
:1015800071F90097012001900294039400F06CF926
:1015900010200B210090019100F065F902210191CA
:1015A000C020032100900391052200F05BF9012186
:1015B0000091CDF804B000F049F902200B21009011
:1015C000019100F043F94FF2340100F033F900F0DB
:1015D0003EF94CF604410091CDF804B000F031F929
:1015E00043F2810100F026F900F02CF94FF410715C
:1015F00000F020F900F032F94FF4C0710091CDF8FD
:1016000004B000F02AF90220032100900190039118
:10161000052200F015F902210191782003210090A4
:101620000391072200F00CF91221019104220321F9
:1016300003914FF440760492009600F007F90022DF
:1016400000211720FFF7A4F91720FFF7BFF90022A8
:1016500000212820FFF79CF92820FFF7B7F9012186
:10166000AE4FAF48397138604FF48071B9610220D4
:1016700004213962F8600121B962BC603C617C617F
:10168000FC617C62FC623C63384600F059FD08B1A5
:1016900000F05DF907F2AC55A248A34928606960E3
:1016A000AC600120E8602C616C61AC61EC612C6283
:1016B000284600F0EFFD08B100F049F90021284666
:1016C00000F040FE08B100F042F90021284600F089
:1016D0004EFE08B100F03BF99448E8640221296508
:1016E000042068651021A9651720E8652C666C66E2
:1016F00007F5BF6000F066FE08B100F028F98C48DD
:10170000B8634FF4827107207866F96308204FF4BC
:101710000071F86639653C647E64BC64FC647C6579
:10172000BC65FC653C66BC6607F1380000F0BEFE97
:1017300008B100F00CF907F2A4407E4901604FF4B3
:10174000E1360C214161466000F06BF808B100F011
:10175000FEF807F5A5607849016046600C214161FB
:1017600000F05FF808B100F0F2F807F19C004FF0CC
:10177000A0410622022301604260C3608361C4610C
:101780000462446284620463C46200F005FF08B12D
:1017900000F0DDF80C2200F0D6F81C22002103A88E
:1017A00000F0F5F9554E4FF08040306040F237417F
:1017B00040F2CF70F0607160B4603461B461304663
:1017C000FFF745F908B100F0C2F8009402946946A9
:1017D000304600F04FFF08B100F0B9F860210391E6
:1017E000002204920592079203A93046FFF7E2F91E
:1017F00008B100F0ACF83046FFF70DFD4FF6FF766C
:101800004FF47A7000F080FF24B1B44204D1DFF8C5
:101810002C8101E04FF47A783046FFF707FE44440C
:10182000EEE78460C46004618461C4610462446260
:1018300000F07EBF00910122019202940394704750
:10184000049202946946484600F0A0B802946946A2
:10185000284600F09BB800900191029469465046DA
:1018600000F094B80492029469464FF0904000F062
:101870008DB880B596B04422002105A800F087F904
:1018800000F060F84FF40070FFF722F808B100F0A4
:101890005EF801F081F92A48016821F01801016021
:1018A000142205920121602207910B910D920021D3
:1018B00001220C9110921192022128220F91129272
:1018C0000721022213911492159205A8FEF75CFCE1
:1018D00008B172B6FEE70F200321009001910022AB
:1018E00002920392049204216846FEF782FE08B138
:1018F00072B6FEE700F008FB17B000BD4C060020F2
:101900004C1002400010004800040048000C004841
:1019100000080048000011100000211010000020F5
:101920002060014000580040EC9C9010001000A086
:10193000003C0040003801400048004018FCFFFF18
:101940009010024014220021684600F020B972B6BF
:10195000FEE730B4002513E050F8042BD30744BF52
:10196000A9F101039A18091F042942F8045BFAD26D
:1019700013468C0744BF15809B1CC90748BF1D70C8
:1019800050F8041B0029E7D130BC70472DE9F84F0F
:101990004FF00009734A744B4FF00F0805460E468E
:1019A00034E0724CA54214BF072406248C407049D1
:1019B0003C4341F82C40C143146801EA040C7468AC
:1019C000E40348BF40EA0C0CC2F800C0546801EAC6
:1019D000040C7468A40348BF40EA0C0CC2F804C0AD
:1019E000946801EA040C7468E40248BF40EA0C0CF5
:1019F000C2F808C0D46801EA040C7168890248BFC3
:101A000040EA0C0CC2F80CC009F10109316831FA46
:101A100009F000F09780012404FA09F414EA0100A7
:101A2000F2D04FEA490C032101FA0CF16FEA010EE2
:101A30007168E443012918BF022903D0112918BF96
:101A4000122910D1A968F7680EEA010107FA0CF70C
:101A50003943A96069687768C7F30017214007FA1E
:101A600009F739436960716801F00307032F07D153
:101A7000EF6AC1F3C0013C4001FA09F10C43EC628A
:101A8000E968B4680EEA010104FA0CF42143E96044
:101A90004FEA89017468022C18BF122C12D14FEA48
:101AA000D90405EB840401F01C07D4F820A008FA3F
:101AB00007FB2AEA0B0AD6F810B00BFA07F747EA39
:101AC0000A0727622C680EEA0407347904F003043D
:101AD00004FA0CF43C432C607468E40094D51C6850
:101AE00044F001041C604FEA990C1C6804F00104E6
:101AF000009401F00C01009C1D4C54F82C4008FA95
:101B000001F724EA0707B5F1904F08BF002418D069
:101B1000184CA54208BF012413D0174CA54208BF9A
:101B200002240ED0154CA54208BF032409D0144C42
:101B3000A54208BF042404D0124CA5427FF431AF63
:101B4000052433E7BDE8F18F0AB1816170478162F6
:101B500070470D4A136803421CBF106000F016B8AE
:101B60007047000000040140601002400018004867
:101B7000080001400004004800080048000C00482C
:101B8000001000480014004814040140704710B5CC
:101B9000044610460A460146204601F005F8204654
:101BA00010BD30B40EE00268436802440830DC0720
:101BB00044BFA9F10104E31852F8045B43F8045B45
:101BC000091FF9D150F8041B0029ECD130BC704733
:101BD0002DE9FC47064600243068DFF82074010533
:101BE000A04621D5706E70B1B0F5800F17D0B0F55A
:101BF000000F03D0B0F5400F09D013E03A6842F46B
:101C000080323A6004E0002100F07CF9044654B9C7
:101C1000F96F706E21F440010143F96704E000F0B0
:101C20006BF9F3E70124A0463068C10421D5B06EFA
:101C3000A8B1B0F1807F17D0B0F1007F03D0B0F130
:101C4000407F04D013E0396841F4803139607CB9B9
:101C5000F96FB06E21F040710143F96709E000218E
:101C600000F050F90446F2E700F046F9FAE70124E3
:101C7000A046306881032BD5F86CC1004FF00009F5
:101C80000AD4F86C40F08050F8644FF00109F86C09
:101C900000F0805000900098DFF83454286840F439
:101CA00080702860FEF708FE82462868C10500F1B2
:101CB0008280FEF701FEA0EB0A000328F5D303247F
:101CC000A046B9F1000F03D0F86C20F08050F86402
:101CD0003078C10705D5FA6FB06B920840EA8202EE
:101CE000FA673178880705D5F96FF06B21F00C01A0
:101CF0000143F9673178480705D5F96F306C21F059
:101D000030010143F9673178080705D5F96F706C28
:101D100021F0C0010143F9673178C80605D5F96F94
:101D2000B06C21F440710143F9673178880605D51C
:101D3000F96FF06C21F440610143F967316888055F
:101D400005D5F96FF06D21F440210143F967316841
:101D5000480505D5F96F306E21F440110143F9674C
:101D60003178480605D5F96F306D21F440510143B3
:101D7000F9673178080605D5F96F706D21F4404197
:101D80000143F9673168C80505D5F96FB06D21F4D5
:101D900040310143F9673168880446D5F96FF06E28
:101DA00021F040610143F967F06EB0F1006F34D16A
:101DB00000F09DF839E0002C82D1DFF85043206814
:101DC00010F440701CBFD6F8841088420BD02068F5
:101DD000216841F48031216020F44070226822F4AF
:101DE000803222602060C0070FD5FEF765FD0546F2
:101DF0002068810709D4FEF75FFD401B41F289315D
:101E00008842F5D34FF003085BE72168D6F88400D9
:101E100021F440710143216053E7B0F1806F04D198
:101E200000F06FF8010018BF80463068010314D538
:101E3000FA6F306F22F040620243FA67306FB0F100
:101E4000006F02D100F053F807E0B0F1806F04D1C9
:101E500000F057F8010018BF80463068410314D5E0
:101E6000FA6F706F22F040620243FA67706FB0F150
:101E7000006F02D100F03BF807E0B0F1806F04D1B1
:101E800000F03FF8010018BF80463068410418D5C3
:101E9000FA6FB06F22F040520243FA67B06FB0F1B0
:101EA000805F03D1022100F02DF807E0B0F1005F60
:101EB00007D1022106F1200000F0A2F8010018BFAE
:101EC00080463068010405D5FA6FF06F22F0804239
:101ED0000243FA673168C80306D5F96FD6F8800067
:101EE00021F000410143F9674046BDE8F6873868B4
:101EF00040F4801038607047002106F1200000F0A7
:101F00007FB80121301D05E08148016841F00401DE
:101F1000016070472DE9F04105467D4F28680C4669
:101F2000F968002611F0030F0DD0F96801F00301E4
:101F3000814231D180B3F8686968C0F30210401C57
:101F400088420ED028E0012804D025D303281DD0D4
:101F500018D321E03A6891071ED5FA68696800F045
:101F6000C9F8386820F0806000F0CCF88046386806
:101F7000010113D5FEF7A0FCA0EB08000328F6D35F
:101F8000032637E039684A05E7D405E039688A0353
:101F9000E3D439684A03E0D401262BE0A9682CB9C0
:101FA0003A695C48EB6800F095F80FE0012C3A695B
:101FB00009D12B69584802405B0842EA01215B1EA7
:101FC00041EA435102E06B6900F08BF839613868EF
:101FD00040F0806000F096F804463868010105D4AE
:101FE000FEF76AFC001B0328F7D3C9E73869A96923
:101FF000084338613046BDE8F08100000C10024013
:102000002DE9F0410646424F30680C46F96800253C
:1020100011F0030F0DD0F96801F00301814231D1B5
:1020200080B3F8687168C0F30210401C88420ED07B
:1020300028E0012804D025D303281DD018D321E09F
:102040003A6891071ED5FA68716800F053F838684D
:1020500020F0805000F056F880463868810013D593
:10206000FEF72AFCA0EB08000328F6D303252BE09B
:1020700039684A05E7D405E039688A03E3D439684A
:102080004A03E0D401251FE0B1687A69002C04D12D
:102090002048F36800F01EF802E0336900F021F8F0
:1020A0007961386840F0805000F02CF804463868B8
:1020B000810005D4FEF700FC001B0328F7D3D5E709
:1020C00078697169084378612846BDE8F0810000AD
:1020D00000700040024042EA01211B0941EA4341ED
:1020E00070470E4802405B0842EA01215B1E41EA4C
:1020F0004361704722F073021043491E40EA011009
:10210000F86070473860FEF7D7BB000090100240BF
:1021100000100240FF80FDFFFF809FFFFF80FFF95E
:10212000032010B5FEF727FC0020FEF7A3FB0024D8
:10213000002814BF0124FEF771FF204610BD0000E7
:1021400070B5040005D000F067F8291D51F8200093
:1021500008B1012070BD2046FEF777FF2868401CBB
:102160002860296801291AD1DFF8B810086820F022
:10217000804008600A68A06802430A600B6823F484
:102180007F030B602079012805D10A68E068401EB2
:1021900042EA00420A60086840F000400860206897
:1021A000016821F471410160036826696269A169CF
:1021B00016430E433343036003681B091B0103608E
:1021C0000268E369216A0B431A430260826822F4C1
:1021D0005F0282608168A36A626A5B1E42EA034210
:1021E00011438160416801F0070141604168236B40
:1021F000E26ADB0043EA02231943416001220168DD
:1022000041F08001016084F8342000F00DF8291DB0
:1022100041F82040002070BD2068DFF85C5000F0DD
:1022200003B80000006001401249884201D100203B
:1022300070471249884201D10120704710498842F5
:1022400001D1022070470F49884201D10420704714
:102250000D49884201D1052070470C49884201D1BF
:10226000062070470A49884201D1072070470320A1
:102270007047000000600140980600202060014087
:102280004060014080600140A0600140C0600140AA
:10229000E060014038B5040001D1012032BD04F1F5
:1022A0004005687820B9002129702046FEF7FBFE22
:1022B00000F040F86068216820F0706008612068D4
:1022C000816821F400418160E06821680128A068EC
:1022D0000CBF40F4004040F404408860E0680228ED
:1022E00003D120684FF4006141602068416841F0EB
:1022F000007141F4004141602068C16821F400414F
:10230000C16060692169A2690143206841EA022134
:10231000C160206AE1692268014311602068016898
:1023200041F0010101600020686020216970206394
:10233000A87032BD242068702068016849084900EF
:102340000160704730B500F140025378202B0CD16A
:102350001478012C09D000F01DF824F480541C607E
:1023600003681D682943196020E0022030BD30B5A4
:1023700000F140025378202B0AD11478012C07D0A9
:1023800000F008F824F4706444EA01241C600DE0B5
:10239000022030BD012313702424547003681D688B
:1023A0006D086D001D6003681C6870470068016857
:1023B00041F00101016020205070002111700020C7
:1023C00030BD0000F8B50446FEF776FA06460CB9B3
:1023D0000120F2BD04F13805687838B90021297070
:1023E0002046FEF797FE41F28830A8603346206809
:1023F0000168A26821F47061521E41EA0221016065
:1024000000F028F801001ED12268104913686668A0
:102410000B40E16843EA06630B4313600C492368F1
:102420005E68276962690E4046EA0746A16916435D
:102430000E435E6021680A6842F001020A600021D2
:10244000696001226A7000212970F2BDEFFFFF0070
:10245000FEF8E0FF0022A868009020212046FFE758
:102460002DE9F041069C05460E4690461F46286819
:10247000816816EA010018BF0120404512D014F10E
:10248000010FF4D0FEF718FAC01B844201D3002CD0
:10249000EDD1042085F839000120E96B41F00101FC
:1024A000E96300E00020BDE8F081000038B50400D9
:1024B00001D1012032BD606A28B900F068F805D06A
:1024C0000021E16102E00020206160610020A06243
:1024D00004F15C05687820B9002129702046FEF7D8
:1024E00050FE0220687000F04AF8E168B1F5E06F34
:1024F00004D90020B1F5706F03D104E04FF480508F
:1025000001D00021A1626168A268237C01F482717C
:1025100002F404421143227D03F002031943A3692C
:1025200002F001021143227F03F40073194394F86F
:10253000203002F038021143A26A03F080031943ED
:10254000236802F4005211431960A16994F8242011
:1025500094F83430090C01F0040102F01002114328
:10256000E26803F00803194302F470621143084360
:1025700021684860002068600121697032BD2068D0
:10258000016821F040010160704704460D46606813
:10259000B0F5827F7047000070B504008AB04BD060
:1025A000266804F56F75687820B9002129702046E7
:1025B000FEF7BAFE03206870F16BC8055CBF00210E
:1025C0002161206800F049FB83B000F04EF80EBC9A
:1025D000206800F01DFB00282CD12068002100F0AD
:1025E00042FB00211C2000260AE010FB01F22244DD
:1025F0003C32012353701170D180002300F02EF87B
:1026000062689142F1D3002109E010FB01F22244FB
:1026100002F5FE7200231170537000F01FF862681B
:102620009142F2D383B000F020F80EBC206800F095
:1026300031FB18B10220687001200DE084F83800E9
:1026400001216970606A012804BF204600F0FEFB8A
:10265000206800F0E8FB00200AB070BD491CD6706D
:102660009360D6605361C9B27047211D6846342219
:1026700000F000BCF0B500F13C042278012A01D141
:102680000220F0BD01222270022363700668DFF889
:1026900068E07768DFF864C0B568764518BF6645BE
:1026A00003D14B6827F470071F430A6827F07007AF
:1026B000174377600268724518BFB2F1804F0CD0A3
:1026C0000C4882421CBF0E4B9A4206D008488242F8
:1026D0001EBF62450B4B9A4204D1886825F08005E5
:1026E000054395600121617000202070F0BD00005D
:1026F000000C004000040040002C01400034014068
:10270000000800400040014038B50446FEF7D4F808
:1027100014F1010F054602D0044801786418FEF751
:10272000CBF8401BA042FAD331BD00BF000000200F
:1027300038B5040009D004F17405696809B900F0DE
:102740001EF800F021F8012801D1012032BD606A95
:1027500008B100F02AF800F00AF821F02A01FFE79A
:10276000816000F01BF8BDE8324000F0A0B920689D
:10277000416821F4904141602068816870470020E1
:1027800028702046FEF76BBD24216960206802682E
:10279000520852000260204600F00AB82068016822
:1027A00041F00101016020467047204600F01CB94D
:1027B000F8B5044683482268834F1368A168034034
:1027C00020690B4361690343E0690B4303431360D2
:1027D00000255168E06821F4405101435160A3692C
:1027E00077498A421CBF206A03439668774826F4DB
:1027F000306633439360BA424FF40043744E33D192
:10280000366806F00306032E3BD8DFE806F0026FB9
:1028100060810127E169B1F5004F4FF6F07640F095
:10282000A7805FB1012F00F09B80022F0AD0042FF8
:1028300000F09980082F00F09980BBE0FDF7ACFF15
:10284000002810D061684A0802EB4002B2FBF1F0A8
:1028500080B2A0F11001B142EFD20640C0F34200B5
:1028600006432068C660A6E05A4FBA4221D13668B6
:1028700016F00C065DD0042E38D0082E27D00C2E72
:1028800046D010278A42C5D137B1022F08D0042F75
:1028900051D0082F52D08DE0FDF77EFF0028E2D006
:1028A000626802EB4201884202D31303834247D29B
:1028B00080E0494FBA420CD1366816F0300638D065
:1028C000102E13D0202E02D0302E21D0D9E702278F
:1028D000D8E7424FBA420BD1366816F0C00628D06E
:1028E000402E03D0802EF2D0C02EEEE70427C9E799
:1028F0003B4FBA420ED1366816F4407619D0B6F581
:10290000807FF3D0B6F5007FE1D0B6F5407FB8D137
:102910000827B7E78A42B4D1366816F4406608D073
:10292000B6F5806FE2D0B6F5006FD0D0B6F5406F47
:10293000CBE70027A6E7FDF7E6FEAFE71846AFE7CF
:10294000010E560816EB00206941002300F09EFAA4
:10295000A0F54071234A91422CD22168C8602AE038
:10296000FDF722FF6CE7FDF7CEFE69E7184669E741
:1029700047B1012F16D0022F07D0042F15D0082FF2
:1029800016D017E0FDF708FFA8B1616800EB510011
:10299000B0FBF1F080B2A0F11001B1420AD222687E
:1029A000D06008E0FDF700FFEEE7FDF7ACFEEBE7D7
:1029B0001846EAE7012500206066A0662846F2BDB9
:1029C00000800040F369FFEF003801400024F4006C
:1029D000881002400044004000480040004C004085
:1029E0000050004000FD0F0090F82410CA0706D5E3
:1029F00002685368816A23F400330B43536090F8F4
:102A000024108A0706D502685368C16A23F480330C
:102A10000B43536090F824104A0706D502685368A8
:102A2000016B23F480230B43536090F824100A07B2
:102A300006D502685368416B23F400430B4353608F
:102A400090F82410CA0606D502689368816B23F4B7
:102A500080530B43936090F824108A0606D50268D1
:102A60009368C16B23F400530B43936090F82410D8
:102A70004A0610D502685368016C23F480130B4397
:102A80005360036CB3F5801F05D15368416C23F488
:102A9000C0030B43536090F824100A0606D5016862
:102AA0004A68806C22F4002202434A607047F8B5FD
:102AB000044604F174050020E8606FF07E47FDF7DE
:102AC000FBFE0646206801680A0708D500973346D2
:102AD00000224FF40011204600F017F860B920687A
:102AE00001684A070AD50097334600224FF4800157
:102AF000204600F00AF808B10320F2BD20206860EB
:102B0000A860002020662870F2BD2DE9F041069CE7
:102B100005460E4690461F462868C1693140B142BD
:102B20000CBF01200020404529D114F1010FF3D042
:102B3000FDF7C2FEC01B844200D35CB9286801685F
:102B400021F4D071016000F01CF800210170032015
:102B5000BDE8F081286801684A07DDD5C1690A052A
:102B6000DAD54FF4006101622868026822F4D0725D
:102B70000260002200F005F8C1600270E7E7002063
:102B8000E6E72868816849084900816005F174001A
:102B900020214160816070470248016841F48071E2
:102BA000016070470070004062F30F2262F31F4221
:102BB000401810F0030308D0C91A1FD3DB0748BF21
:102BC00000F8012D28BF20F8022D130030B4144660
:102BD0001546103928BF20E93C00FAD8490728BF1C
:102BE00020E90C0048BF40F8042D890028BF20F8D8
:102BF000022D48BF00F8012D30BC7047C91818BF1E
:102C000000F8012DCB0728BF00F8012D7047000008
:102C10000FB40246DFF82C12D06840F04000D060BC
:102C20000846401E0DD01369002BFAD5106940F0FC
:102C300001001061491E04D01069C307FAD40020B6
:102C400000E003200A990029916B0CBF41F4803108
:102C500021F48031916304B07047816849084900CC
:102C600081600020704780B5C26822F0C04201290F
:102C7000C26008D1C16841F00051C1603220FFF745
:102C800043FD002002BD19B9C16841F08041F4E75D
:102C9000012002BD0EB42DE9F0430546044600268E
:102CA0000021002004EB8102491C0F29C2F8040115
:102CB000F8D3DDF84490B9F1000F05F5006710D1A5
:102CC000786840F002007860A06B20F40010A063E8
:102CD000216841F040012160206840F080002060C0
:102CE00003E0A06B40F40010A06305F560630321CE
:102CF0001E6038683860204600F08DF810212046AC
:102D000000F06DF800B10126204600F077F800B120
:102D100001260020386178612A46F8614FF67F333A
:102D20004FF0904C4FF0006E002503E00D600D61F8
:102D30008B60401C0799884211D202EB401101F5CB
:102D40001061D1F80080B8F1000FEFD5002806BF60
:102D500002F51068C8F800E0C1F800C0E7E70020FD
:102D600003E00D600D618B60401C0799884211D211
:102D700002EB401101F53061D1F80080B8F1000F8D
:102D8000EFD5002806BF02F53068C8F800E0C1F8AA
:102D900000C0E7E7386920F480703861A5616FF002
:102DA00080406061A169DFF8A00041F01001A161DD
:102DB000A1690143A1610D9818B1A06940F0080014
:102DC000A061B9F1010F05D1A06940F0804040F049
:102DD0000400A0613046BDE8F0035DF810FB8901F6
:102DE00041F020010161DFF85C10491E04D0026946
:102DF0009306FAD400207047032070471021016128
:102E0000DFF84010491E04D00269D306FAD400202E
:102E100070470320704700F5006002681143FFE728
:102E200001600020704700F5606100F500600A68ED
:102E3000920892000A60416841F00201416000205E
:102E400070470000410D030000383C80016800F528
:102E50007D700122002382600370886940F0006069
:102E60008861486D40F0805040F0030048650020C4
:102E7000704700004AB1000011F8013B521E00F8F3
:102E8000013B1CBF11F8013BF8E77047D3BBD9B138
:102E9000B2F5803F5BD2022A1ED98C46B1FBF2F11B
:102EA00002FB11C31B0443EA1043B3FBF2FC02FB19
:102EB0001C3380B240EA0343B3FBF2F002FB103252
:102EC00040EA0C4000237047022A05D98446B0FB33
:102ED000F2F002FB10C270474AB105D100F00102C6
:102EE00049085FEA3000704700220023704700F075
:102EF00051B80B000200002100207047F7D30022D8
:102F000000237047904271EB030CF2D370B5B1FA15
:102F100081F4B3FA83F52C1BA340C4F1200532FAE7
:102F200005F63343A2405FF00046E64002E05B084E
:102F30005FEA3202841A71EB030524BF204629465A
:102F40007641F4D302000B003000002170BD70B553
:102F5000B1FA81F4B2FA82F5C4F120046419B4F133
:102F60002006DAD3B2405FF00044F440002502E0CE
:102F700052085FEA3303C61A71EB020E24BF3046D3
:102F8000714664416D41F3D302000B00200029001B
:102F900070BD00007047FEE7FEE7FEE7FEE7FEE7D4
:102FA00070477047704700F027B880B52020FEF7C3
:102FB000D0FD4020FEF7CDFD8020FEF7CAFDBDE824
:102FC00002404FF48070FEF7C4BD80B54FF48060BE
:102FD000FEF7BFFD4FF40060FEF7BBFD4FF400505D
:102FE000FEF7B7FD4FF48040FEF7B3FDBDE80240A9
:102FF0004FF40040FEF7ADBD0248416802788A18E0
:1030000042607047000000200C48016841F47001E4
:10301000016000220A49086840F0010008608A60E7
:103020004FF480520B68074803400B60CA600020D1
:103030000B6823F480230B608861704788ED00E003
:1030400000100240FFFFF6EA000000000000000050
:103050000102030406070809A0860100400D0300D1
:10306000801A060000350C0040420F0080841E00CC
:1030700000093D0000127A000024F40000366E01C1
:103080000048E801006CDC0210B5074979441831AA
:10309000064C7C44163404E00A68081D1144884735
:1030A0000146A142F8D110BD2C0000004C000000E8
:1030B0004EF68851CEF20001086840F470000860B6
:1030C000BFF34F8FBFF36F8F4FF00070E1EE100A28
:1030D000704700007FE8FFFFB006000010000020EE
:1030E00000000000BFEAFFFF1000000064000000C5
:1030F000000000200000000000F00DF8002801D0C2
:10310000FFF7C2FFAFF300800020AFF30080FEF7AF
:10311000A1F900F002F80120704700F001B80000AA
:103120000746384600F002F8FBE7000080B5AFF331
:103130000080024A11001820ABBEFBE72600020007
:103140000148804701480047093000086131000804
:1031500001000000000000001000000000093D0018
:10316000AFF30080FFF7A4FFFFF7C6FF00000000E9
:1031700001020304FFF7FEBFFFF7FEBFFFF7FEBF2C
:10318000FFF7FEBFFFF7FEBFFFF7FEBFFFF7FEBF73
:10319000FFF7FEBFFFF7FEBFFFF7FEBFFFF7FEBF63
:1031A000FFF7FEBFFFF7FEBFFFF7FEBFFFF7FEBF53
:1031B000FFF7FEBFFFF7FEBFFFF7FEBFFFF7FEBF43
:1031C000FFF7FEBFFFF7FEBFFFF7FEBFFFF7FEBF33
:1031D000FFF7FEBFFFF7FEBFFFF7FEBFFFF7FEBF23
:1031E000FFF7FEBFFFF7FEBFFFF7FEBFFFF7FEBF13
:1031F000FFF7FEBFFFF7FEBFFFF7FEBFFFF7FEBF03
:10320000FFF7FEBFFFF7FEBFFFF7FEBFFFF7FEBFF2
:10321000FFF7FEBFFFF7FEBFFFF7FEBFFFF7FEBFE2
:10322000FFF7FEBFFFF7FEBFFFF7FEBFFFF7FEBFD2
:10323000FFF7FEBFFFF7FEBFFFF7FEBFFFF7FEBFC2
:10324000FFF7FEBFFFF7FEBFFFF7FEBFFFF7FEBFB2
:10325000FFF7FEBFFFF7FEBFFFF7FEBFFFF7FEBFA2
:10326000FFF7FEBFFFF7FEBFFFF7FEBFFFF7FEBF92
:10327000FFF7FEBFFFF7FEBFFFF7FEBFFFF7FEBF82
:10328000FFF7FEBFFFF7FEBFFFF7FEBFFFF7FEBF72
:10329000FFF7FEBFFFF7FEBFFFF7FEBFFFF7FEBF62
:0C32A000FFF7FEBFFFF7FEBFFFF7FEBF09
:04000005080031615D
:00000001FF
